{
  "_format": "hh-sol-artifact-1",
  "contractName": "VeriStamp",
  "sourceName": "contracts/VeriStamp.sol",
  "abi": [
    {
      "inputs": [],
      "stateMutability": "nonpayable",
      "type": "constructor"
    },
    {
      "inputs": [
        {
          "internalType": "address",
          "name": "owner",
          "type": "address"
        }
      ],
      "name": "OwnableInvalidOwner",
      "type": "error"
    },
    {
      "inputs": [
        {
          "internalType": "address",
          "name": "account",
          "type": "address"
        }
      ],
      "name": "OwnableUnauthorizedAccount",
      "type": "error"
    },
    {
      "anonymous": false,
      "inputs": [
        {
          "indexed": true,
          "internalType": "bytes32",
          "name": "fileHash",
          "type": "bytes32"
        },
        {
          "indexed": true,
          "internalType": "address",
          "name": "owner",
          "type": "address"
        },
        {
          "indexed": false,
          "internalType": "uint256",
          "name": "timestamp",
          "type": "uint256"
        }
      ],
      "name": "CertificateCreated",
      "type": "event"
    },
    {
      "anonymous": false,
      "inputs": [
        {
          "indexed": true,
          "internalType": "address",
          "name": "previousOwner",
          "type": "address"
        },
        {
          "indexed": true,
          "internalType": "address",
          "name": "newOwner",
          "type": "address"
        }
      ],
      "name": "OwnershipTransferred",
      "type": "event"
    },
    {
      "anonymous": false,
      "inputs": [
        {
          "indexed": false,
          "internalType": "bool",
          "name": "isPaused",
          "type": "bool"
        }
      ],
      "name": "PausedStateChanged",
      "type": "event"
    },
    {
      "inputs": [
        {
          "internalType": "bytes32",
          "name": "",
          "type": "bytes32"
        }
      ],
      "name": "certificates",
      "outputs": [
        {
          "internalType": "address",
          "name": "owner",
          "type": "address"
        },
        {
          "internalType": "uint256",
          "name": "timestamp",
          "type": "uint256"
        }
      ],
      "stateMutability": "view",
      "type": "function"
    },
    {
      "inputs": [
        {
          "internalType": "bytes32",
          "name": "_fileHash",
          "type": "bytes32"
        }
      ],
      "name": "certify",
      "outputs": [],
      "stateMutability": "nonpayable",
      "type": "function"
    },
    {
      "inputs": [],
      "name": "owner",
      "outputs": [
        {
          "internalType": "address",
          "name": "",
          "type": "address"
        }
      ],
      "stateMutability": "view",
      "type": "function"
    },
    {
      "inputs": [],
      "name": "paused",
      "outputs": [
        {
          "internalType": "bool",
          "name": "",
          "type": "bool"
        }
      ],
      "stateMutability": "view",
      "type": "function"
    },
    {
      "inputs": [],
      "name": "renounceOwnership",
      "outputs": [],
      "stateMutability": "nonpayable",
      "type": "function"
    },
    {
      "inputs": [
        {
          "internalType": "bool",
          "name": "_isPaused",
          "type": "bool"
        }
      ],
      "name": "setPaused",
      "outputs": [],
      "stateMutability": "nonpayable",
      "type": "function"
    },
    {
      "inputs": [
        {
          "internalType": "address",
          "name": "newOwner",
          "type": "address"
        }
      ],
      "name": "transferOwnership",
      "outputs": [],
      "stateMutability": "nonpayable",
      "type": "function"
    }
  ],
  "bytecode": "0x608060405234801561001057600080fd5b5033600073ffffffffffffffffffffffffffffffffffffffff168173ffffffffffffffffffffffffffffffffffffffff16036100845760006040517f1e4fbdf700000000000000000000000000000000000000000000000000000000815260040161007b919061019e565b60405180910390fd5b6100938161009960201b60201c565b506101b9565b60008060009054906101000a900473ffffffffffffffffffffffffffffffffffffffff169050816000806101000a81548173ffffffffffffffffffffffffffffffffffffffff021916908373ffffffffffffffffffffffffffffffffffffffff1602179055508173ffffffffffffffffffffffffffffffffffffffff168173ffffffffffffffffffffffffffffffffffffffff167f8be0079c531659141344cd1fd0a4f28419497f9722a3daafe3b4186f6b6457e060405160405180910390a35050565b600073ffffffffffffffffffffffffffffffffffffffff82169050919050565b60006101888261015d565b9050919050565b6101988161017d565b82525050565b60006020820190506101b3600083018461018f565b92915050565b6109c8806101c86000396000f3fe608060405234801561001057600080fd5b506004361061007d5760003560e01c8063715018a61161005b578063715018a6146100d8578063742f0688146100e25780638da5cb5b14610113578063f2fde38b146101315761007d565b806316c38b3c1461008257806324c74c781461009e5780635c975abb146100ba575b600080fd5b61009c60048036038101906100979190610625565b61014d565b005b6100b860048036038101906100b39190610688565b6101a9565b005b6100c261037b565b6040516100cf91906106c4565b60405180910390f35b6100e061038e565b005b6100fc60048036038101906100f79190610688565b6103a2565b60405161010a929190610739565b60405180910390f35b61011b6103e6565b6040516101289190610762565b60405180910390f35b61014b600480360381019061014691906107a9565b61040f565b005b610155610495565b80600260006101000a81548160ff0219169083151502179055507f9e3a5e37224532dea67b89face185703738a228a6e8a23dee546960180d3be648160405161019e91906106c4565b60405180910390a150565b600260009054906101000a900460ff16156101f9576040517f08c379a00000000000000000000000000000000000000000000000000000000081526004016101f090610833565b60405180910390fd5b6000801b810361023e576040517f08c379a0000000000000000000000000000000000000000000000000000000008152600401610235906108c5565b60405180910390fd5b6000600160008381526020019081526020016000206001015414610297576040517f08c379a000000000000000000000000000000000000000000000000000000000815260040161028e90610957565b60405180910390fd5b60405180604001604052803373ffffffffffffffffffffffffffffffffffffffff168152602001428152506001600083815260200190815260200160002060008201518160000160006101000a81548173ffffffffffffffffffffffffffffffffffffffff021916908373ffffffffffffffffffffffffffffffffffffffff160217905550602082015181600101559050503373ffffffffffffffffffffffffffffffffffffffff16817f67d07779fefe87a5afdf21ffc7a05eaf6e6ce3ee37846292b813416c60b9951a426040516103709190610977565b60405180910390a350565b600260009054906101000a900460ff1681565b610396610495565b6103a0600061051c565b565b60016020528060005260406000206000915090508060000160009054906101000a900473ffffffffffffffffffffffffffffffffffffffff16908060010154905082565b60008060009054906101000a900473ffffffffffffffffffffffffffffffffffffffff16905090565b610417610495565b600073ffffffffffffffffffffffffffffffffffffffff168173ffffffffffffffffffffffffffffffffffffffff16036104895760006040517f1e4fbdf70000000000000000000000000000000000000000000000000000000081526004016104809190610762565b60405180910390fd5b6104928161051c565b50565b61049d6105e0565b73ffffffffffffffffffffffffffffffffffffffff166104bb6103e6565b73ffffffffffffffffffffffffffffffffffffffff161461051a576104de6105e0565b6040517f118cdaa70000000000000000000000000000000000000000000000000000000081526004016105119190610762565b60405180910390fd5b565b60008060009054906101000a900473ffffffffffffffffffffffffffffffffffffffff169050816000806101000a81548173ffffffffffffffffffffffffffffffffffffffff021916908373ffffffffffffffffffffffffffffffffffffffff1602179055508173ffffffffffffffffffffffffffffffffffffffff168173ffffffffffffffffffffffffffffffffffffffff167f8be0079c531659141344cd1fd0a4f28419497f9722a3daafe3b4186f6b6457e060405160405180910390a35050565b600033905090565b600080fd5b60008115159050919050565b610602816105ed565b811461060d57600080fd5b50565b60008135905061061f816105f9565b92915050565b60006020828403121561063b5761063a6105e8565b5b600061064984828501610610565b91505092915050565b6000819050919050565b61066581610652565b811461067057600080fd5b50565b6000813590506106828161065c565b92915050565b60006020828403121561069e5761069d6105e8565b5b60006106ac84828501610673565b91505092915050565b6106be816105ed565b82525050565b60006020820190506106d960008301846106b5565b92915050565b600073ffffffffffffffffffffffffffffffffffffffff82169050919050565b600061070a826106df565b9050919050565b61071a816106ff565b82525050565b6000819050919050565b61073381610720565b82525050565b600060408201905061074e6000830185610711565b61075b602083018461072a565b9392505050565b60006020820190506107776000830184610711565b92915050565b610786816106ff565b811461079157600080fd5b50565b6000813590506107a38161077d565b92915050565b6000602082840312156107bf576107be6105e8565b5b60006107cd84828501610794565b91505092915050565b600082825260208201905092915050565b7f5061757361626c653a20636f6e74726163742069732070617573656400000000600082015250565b600061081d601c836107d6565b9150610828826107e7565b602082019050919050565b6000602082019050818103600083015261084c81610810565b9050919050565b7f566572695374616d703a2046696c6520686173682063616e6e6f74206265206560008201527f6d70747900000000000000000000000000000000000000000000000000000000602082015250565b60006108af6024836107d6565b91506108ba82610853565b604082019050919050565b600060208201905081810360008301526108de816108a2565b9050919050565b7f566572695374616d703a20546869732066696c652068617320616c726561647960008201527f206265656e206365727469666965640000000000000000000000000000000000602082015250565b6000610941602f836107d6565b915061094c826108e5565b604082019050919050565b6000602082019050818103600083015261097081610934565b9050919050565b600060208201905061098c600083018461072a565b9291505056fea2646970667358221220397185eb218a2be16ac8ef3308fae78ca176d40bfdd787f35ecc2c489d71f43964736f6c63430008180033",
  "linkReferences": {},
  "deployedLinkReferences": {}
}